:1000000080C70020CD850200499D03008585020040
:1000100085850200858502008585020000000000BC
:10002000000000000000000000000000697E0200E7
:100030008585020000000000D57D02008585020054
:10004000358002003BD50300358002003580020078
:1000500035800200358002003580020035800200C4
:1000600003D50300358002003580020021D503004E
:1000700035800200358002003580020035800200A4
:100080003580020035800200358002003580020094
:100090003580020035800200358002003580020084
:1000A0003580020035800200358002003580020074
:1000B0003580020035800200358002003580020064
:1000C0003580020035800200358002003580020054
:1000D0003580020035800200358002003580020044
:1000E0003580020035800200358002003580020034
:1000F0003580020035800200358002003580020024
:100100002DE9F04F2DED048B87B0B74C9DF854507E
:1001100002959DF858500395064615468A46204696
:1001200042F2C402002101951D463EF051F8012E15
:1001300031D02EB1002007B0BDEC048BBDE8F08FAC
:10014000149B5868002800F09882D3ED006A9FED58
:10015000A74AD3ED024A93ED035A9FEDA56A07EE35
:10016000900AF8EE666AF8EE677AF6EE005A86EEC6
:10017000A77A304677EE447A77EEE47A77EEC57A5E
:1001800067EEA57A67EE867ACAED007A07B0BDEC15
:10019000048BBDE8F08F04F5C0582B464246254637
:1001A00004F5CA5B194693EDF06AD3ED507AD1EDB0
:1001B000A06A91ED007A67EEC67A0433E6EE877A9C
:1001C000E2EC017A53ED017A93EDEF6AD3ED9F6A89
:1001D00093ED4F7A67EE867A9345E6EE877AC2ED25
:1001E0004F7ADFD1834E9FED848A3746A6F5A0690A
:1001F00005E0CB4587ED008A07F1040715D0F9EC3F
:10020000010AF5EE400AF1EE10FA99ED4F0A04D119
:10021000B5EE400AF1EE10FAEBD038F05FF8CB45BE
:1002200087ED000A07F10407E9D1744ADFED726A2D
:100230009FED736ADFED735A02F10809002306E0AF
:1002400077EEA67AC0ED007A0B46964220D0B6EC47
:10025000017AB4EE667AF1EE10FAF6D0D6ED007AB5
:10026000F4EE667AF1EE10FA09EB830003F1010176
:10027000EBD077EEC77AF4EEC67AF1EE10FADFD45F
:10028000F4EEE57AF1EE10FAA8BF77EEE67AD9E758
:100290005D4E3360A6F5F25358F8042B1A60D8F877
:1002A0003C215A60D84503F10803F5D1574B9FED27
:1002B000588AD8ED005A93ED006AF0EE486A04338C
:1002C000012293ED505AD3ED004A65EE067A25EEF1
:1002D000257AE4EEE57A02324F2AD3ED515AA4EEA4
:1002E000867A03F1080313ED016A65EE253A24EEE0
:1002F000A54AE4EE863AA6EE454A77EE266A37EE40
:10030000888A76EEA36A38EE048ADAD1414B1A1D48
:10031000D3ED015AB3EC016AD3ED507A93ED4F5A05
:1003200026EE277A67EE857AA5EEC57A9A42E5EE43
:10033000867A38EE078A76EEA76AE9D116EE900A39
:1003400004F090FE02460B4618EE100A43EC182B00
:1003500004F088FEB0EE481AF0EE681A41EC100B7B
:1003600037F0BAFF1CA3D3E9002351EC100B04F0C3
:10037000D1FE01F10043194619A3D3E9002304F08B
:10038000F3FF05F061F9244B07EE100AD3ED017A73
:1003900077EE677AF5EEC07AF1EE10FA48BFDFED3E
:1003A0001C7ACAED017AD6F800805FEA580B18BFB4
:1003B000DC4651D0E0454CD90CF29170CCEB8C77F7
:1003C00004EB8000BF00A8EB0C0E0023002B1E46A0
:1003D0003ADBC11902462EE000000000A3E1B14162
:1003E00000000060ECF7674148370020000033430D
:1003F0000000964148540020DB0FC940845500207E
:10040000DB0F49C0DB0F494088550020484F0020D2
:1004100000000000805000202C370020180D8F4D68
:1004200063BF3F4BB6EB0C0681ED007AC2ED007A5C
:1004300039443A4408D492ED007AD1ED007AB4EE12
:10044000E77AF1EE10FAEDDB01339E4500F104008E
:10045000BCD15FEA5C0CADD118F0010F00F0EA816D
:1004600009EB8B09D9ED006A1FED147A5FED145A80
:10047000E14B019E93ED036ADFEDE00ADE4F27EECC
:10048000667AB2EE040AC7EE257A9FEDDD7A77EE42
:10049000C67AF5EEC07AF1EE10FA48BFDFEDD97AF0
:1004A000C6ED007ADDED027AB8EE678A38EE478A4B
:1004B000C8EE200A37F014FFD7ED047ADFEDD20A38
:1004C00030EE670AC8EE200A86ED030AB2EE040A8F
:1004D00037F006FFD7ED057A30EE670AF3EE040A2F
:1004E00086ED020AC8EE200AB2EE040A37F0F8FEE2
:1004F000D7ED027A039B30EE670A8AED020A6BB1F0
:10050000C24E1799189AA6F5207351F8040B18607B
:1005100052F8040B586008339E42F6D1BC4EBD49D8
:10052000BD4801230022A6F500673DF06AFB314675
:1005300028460122043E3DF014F8B74205F10805B3
:10054000F5D1DFF8ECB24FF4007104AB584605AAC0
:100550003DF029F80499B1F5FF7F00F0F9810BF522
:10056000FF63D3ED007A9DED056A00204FF4FF751F
:1005700040F2FF12F0EE046A07E0914200F088803A
:1005800001201546F0EE477A1A4602F5806304EB27
:10059000830393ED007AB4EEE77A531CF1EE10FA80
:1005A000C3F30803E9D567EEA67A531CF4EEC67AC6
:1005B000F1EE10FAC3F3080367DD531CC3F308031D
:1005C000002862D0B5F5FF7FC0F0A2816B1CC3F399
:1005D000080207EE902A05F5806104EB8101F8EE30
:1005E000E77AD1ED008AA84608F2FF3140F2FF1009
:1005F00004EB81018045D1ED006A40F0B180F4EE5A
:10060000E86AF1EE10FA9BED007A40F2B480DFED7B
:100610007D5A9FED827A9FED826A774B77EEA57ABD
:10062000D3ED006A27EE877AC7EE067A77EEE67A90
:100630009FED747AF4EEC77AF1EE10FA00F17A8148
:100640009FED787ACAED007AF0EEE76AF4EE476A39
:10065000F1EE10FA00F2AA80F5EEC07AF1EE10FA8F
:10066000CAED037A00F3FA8000206F4B00221A7063
:1006700007B0BDEC048BBDE8F08F0023CAF8003052
:1006800007B0BDEC048BBDE8F08F91427FF479AFE9
:100690000D4697E728EE098AF4EEC88AF1EE10FAC3
:1006A0002DD506F58063B54204EB830327D037468A
:1006B00093ED008A002F00F03A817E1E78EE087AD2
:1006C00018EE100AF4EEE87AF1EE10FAE2DC04F02B
:1006D000C9FC06F5806304EB8303804618688946ED
:1006E00004F0C0FC42A3D3E9002304F013FD02464A
:1006F0000B464046494604F09DFF0028CAD1AF4250
:1007000086BF05F50073DB1BEB1B072BDDF80880AC
:1007100011D9AF4240F3138140F2F9139F42B8BFA1
:100720001F4607F2072304EB83036FF4FC72D3ED3B
:10073000008A07EB020808F101035942C1F30801DE
:10074000C3F3080258BF4A4207EE902AF8EEE77A50
:10075000B8F1000F7FF448AF2D4BD3ED006A0123B1
:1007600003F58063F4EEE68A04EB8304F1EE10FAFD
:1007700094ED007A36DBB4EEE87AF1EE10FA31D877
:1007800036EE876AF1EE005A36EE066A37EE667A82
:1007900098EEA56AC7EE065A174BB2F5FF7FD3ED68
:1007A000006AC0F2A880214BCAF80030DAED017A65
:1007B0009FED1C7AF0EEE76AF4EE476AF1EE10FA6C
:1007C0007FF64AAF019BD3ED007AF0EEE76AF4EED4
:1007D000476AF1EE10FA7FF63FAF00230220CAF815
:1007E0000C3042E7DFED075AD6E700BFAFF30080D9
:1007F0009A9999999999F13F2C370020000030423D
:10080000000020420000000000000842C83900201B
:10081000444F0020483700207C380400180D8F4DCD
:100820000024744EFFFF7F7F085800200000C07F27
:10083000484700204D4B0BF1804B0BF1FF3B09EB80
:100840008B0903EB8B0BD9ED006A9BED007A37EE39
:10085000267AF6EE006A67EE266A05E6019B93EDBE
:10086000030A37EEC00A37F02FFDB7EE007AB4EE78
:10087000C70AF1EE10FAF0EE407A02D53C4B0122A5
:100880001A70019B9AED030A93ED027A9FED398A63
:1008900030EE470A37EE888A37F016FDB7EE007A59
:1008A000B4EEC70AF1EE10FAF0EE407A02D5304B02
:1008B00002221A709AED030A9AED027A30EE470A84
:1008C00038EE278A37F000FDF7EE007AB4EEE70A3B
:1008D000F1EE10FA02D5264B03221A7038EE008A88
:1008E000F1EE047AB4EEE78AF1EE10FAC2BF204BC3
:1008F00004221A701EE477EEA57A9FED1F7A9FED11
:100900001F6A27EE877AC7EE067A77EEE67A8FE6D9
:1009100005F5806304EB8303D3ED008A02952F462F
:10092000B0EE688AB2EE049A002F7FF4C6AE40F2B1
:10093000FF16C3E68AED007AF0EE477A8CE607F2FE
:10094000074304EB8303D3ED008A07F10708F2E6BF
:100950000BF5FF6240F2FF130BF2F47BD2ED008A3D
:10096000DBED006ADFED067A1A46F9E690550020C5
:100970000858002000000000180D8F4D0024744E10
:100980000080FF4310B5084B044640681C6003F02C
:10099000CBFE03F0D3FC04F04DF803F033FD2068E8
:1009A000BDE8104003F0C2BBC40F00202DE9F04F9A
:1009B000DFF80092D9F8003083B00122DD685A7266
:1009C0008B46019003F0D8FE019803F021FF03F05D
:1009D00007FF03F005FD04F0D7F8002D00F0E180DB
:1009E0000026ABF1A00A3446ABF5247B287803F04F
:1009F00043FA687800F068F9D9F800301B7A012BC7
:100A00003746064600F0A280022B00F0948003F0E7
:100A10005DFD504603F0DAFE002F00F08880002CC8
:100A200000F09080FB680BB1606898472EB1B36806
:100A30000BB168689847002C44D06378002B41D1F3
:100A4000636893F90A307F2B00F084806B78002B69
:100A500038D0D9F80020137C002B33D1D368117A19
:100A60005A787F204AB9D3E9012392F90A405A788B
:100A7000A042A8BF2046002AF5D0A1F10101B1FA99
:100A800081F1490903F0F6FAD9F80070FB685A7849
:100A9000B2B947F6FF707F24596891F90A20A24243
:100AA00007DAB1F9081047F6FF7C61451CBF08461C
:100AB00014469B685A78002AEED03B7A012B53D01B
:100AC00004F062F803F0CCFEB6F800807468B8F168
:100AD000000F21D01034002710E054F80C3C03B173
:100AE000984754F8083C03B1984754F8043C03B1C4
:100AF00098470137474504F110040DD003F078FE04
:100B000050B934F8100C0028E7D003F05FFE54F819
:100B10000C3C002BE4D1E4E703F06AFE58BBAF685D
:100B200001232B742C46002F3DD03D465EE7002E5E
:100B30007FF47DAF7FE76B78022B12D0584603F02D
:100B4000ADFD64E7002E7FF472AFBBE7584603F0BB
:100B50008BFD5CE7D9F800301B7C002BB2D1012063
:100B60000AE003F0D9F8E9E747F6FF739842A7D007
:100B700003F0A6F9A4E70220019003F01FFC03F0A4
:100B800017FE03F0F9FD03F061F803F06FF803F0CE
:100B900059FCD9F80030019802225A7203B0BDE81E
:100BA000F08F0020E8E7F368002BFAD068689847D8
:100BB0003846E1E7C40F0020024B4FF40C7202FBF1
:100BC00000307047C80F00208C20704730B40128D7
:100BD00014461D46DDE9022303D0022808D030BCAC
:100BE00070470429FBD8DFE801F01E19140F0A0032
:100BF0000429F4D8DFE801F0302B26211C00294617
:100C0000204630BC02F0CABA2946204630BC01F06A
:100C1000EFBB2946204630BC01F02EBA29462046BB
:100C200030BC00F05BB92946204630BC00F07CBAED
:100C30002946204630BC02F08DBA2946204630BCF9
:100C400001F0CCBB2946204630BC01F01FBA294632
:100C5000204630BC00F032B92946204630BC00F0B6
:100C600053BA00BF012810B50C4602D0022811D09B
:100C700010BD084600F072F9204600F03FFB204608
:100C800000F054F8204601F043FA2046BDE8104039
:100C900001F0ACBD084600F0C7F9204600F0A0FE08
:100CA000204600F0A7F8204601F0E8FA2046BDE80B
:100CB000104001F0F5BF00BF8260017002B1D0604A
:100CC00000230374704700BF014B03EB0010704713
:100CD0008818002030B40B4B02019C5A03EB001320
:100CE00064B15D68002318461A010133A95ADAB2CB
:100CF000A24208441346F7D330BC7047204630BCAC
:100D0000704700BF8818002010B5044603F0BAF8F9
:100D100018B903F049F9207210BD03F0C3FD20603B
:100D200003F042F9207210BD03F0CEB9F8B5284C9B
:100D3000284E294B6363844696E80F0006F110079E
:100D400004F1100585E80F0097E80F0004F1200575
:100D500085E80F000025C4E90255C4E90E55C4E931
:100D600012551E4B2586A4F8405063606364BCF89E
:100D700004301B491B4A25802036A3F52473A4F8B0
:100D80005030C4E91551E26596E80F0004F16006A1
:100D900086E80F0097E80F0004F17006A4F8805071
:100DA000114F86E80F000120C4E92255C4F8847071
:100DB000FFF78AFF2946102205463DF009FA0B4A43
:100DC0000B4B6C60C5E9022309212980F8BD00BFE7
:100DD000D8180020A8E7030089480000FD4600005D
:100DE0004D460000614800003D400000290D000014
:100DF000090D00002DE9F041274F284CDFF8B0C065
:100E0000C4F804C007F1300386460FCB07F1100683
:100E100004F1100585E80F0096E80F0004F12005A5
:100E200085E80F000025C4E90255BEF80420DFF86C
:100E30008480DFF884E01A481A49258007F12003EE
:100E4000A2F52472C4E915C5C4E90D8EC4E9125592
:100E50002286A4F84050A4F85050E06361640FCBA0
:100E600004F1600787E80F0096E80F0004F17006B0
:100E700086E80F000120E565FFF726FF29461022CE
:100E800005463DF0A5F9084A084B6C60C5E9022308
:100E900008212980BDE8F081A8E70300D8180020C8
:100EA0006148000089480000290D0000090D00007C
:100EB000FD4600003D4000009545000038B5044661
:100EC0001D46FFF7F9FE01236560637028460C227A
:100ED000BDE8384000213DF07BB900BF38B504467D
:100EE0001D46FFF7E9FE01236560637028460C226A
:100EF000BDE8384000213DF06BB900BF38B50F4D5B
:100F00002B7804464BB10E4A127832B1B3FBF2F1A2
:100F100002FB113212F0FF0F0CD001332B7002F0E4
:100F200095FE03F0C9F803F045F82073BDE838409A
:100F300002F03ABF03F074FE2B78EEE79D740020B8
:100F40009C74002010B5044603F02EF8A07203F044
:100F50001FF8606002F09EFF208110BDF8B5837A13
:100F6000032B06464CD8002B4CD1284B00221A707C
:100F7000274D284CDFF8ACC095E80F0005F11007AD
:100F800084E80F0097E80F0004F1100787E80F00CE
:100F900005F120030FCBB6881F4FC4F828C0A6F573
:100FA000287604F1300C2684E76205F1300600272C
:100FB0008CE80F00676296E80F0004F1400C05F121
:100FC00040068CE80F0096E80F00503504F15006FB
:100FD00086E80F0095E80F0004F1600585E80F0032
:100FE0003846FFF771FE3946102205463DF0F0F80D
:100FF0000A4A0B4B6C60C5E9022307212980F8BD22
:10100000072BB2D1014B03221A70B1E79C74002068
:10101000E8E703006819002061480000FD0E0000A9
:10102000450F00004D4600002DE9F0412D4D2E4C9E
:10103000DFF8C4E0DFF8C480074695E80F0005F14B
:10104000100697F80AC0C4F814E084E80F0096E888
:101050000F0004F1200686E80F0005F120030FCBF6
:1010600004F1300686E80F000026C4E906662682F1
:10107000BB881E49DFF888E0ACF10402042AA3F221
:10108000C72334BF03223246A4F8403005F13003B1
:1010900088F8002061640FCB04F1500787E80F0047
:1010A00005F140030FCB04F1600787E80F0015E955
:1010B0000F00DFF850C004F1700585E80F003046DE
:1010C000C4E912ECFFF700FE3146102205463DF060
:1010D0007FF8074A074B6C60C5E902230821298085
:1010E000BDE8F08148E803006819002005440000CD
:1010F000FD0E0000450F0000E93C00009C7400203C
:10110000954500006148000038B51C460546FFF7CC
:10111000D3FD04496C60002347F67F726B700B703F
:10112000628138BD9D74002038B51C460546FFF726
:10113000C3FD04496C60002347F67F726B700B702F
:10114000628138BD9D74002038B5FFF73DFD064C27
:1011500005462078FFF730FD0146284602F054FE90
:1011600023780133237038BD9E7400202DE9F04FA1
:10117000DFF84C914FF0000883B080F830800546CE
:1011800003F002FD99F80030002B00F08480464601
:101190004FF0010A3046FFF70FFD740004F108021A
:1011A0002A4483460092FFF70FFD05EB46070346EE
:1011B000009A3946584602F015F802F031FF04F162
:1011C000200104F1280229442A4483460191009217
:1011D00002F02AFFDDE900210346584602F002F83A
:1011E00035F81620B7F9203099F80000D21A25F802
:1011F0001620B7F9282039899533891A08F1010892
:10120000B3F5957F5FFA88F602F19502398102D82D
:10121000B2F5957F01D985F830A0B042BAD8D0B3E5
:10122000B5F9003040F60D1203F28743934235D9E9
:10123000022385F8303001282DD0B5F9023040F670
:101240000D1203F2874393422FD9022385F83030E1
:10125000022820D0B5F9043040F60D1203F287437E
:10126000934229D8B5F90C3003F28743934223D82F
:10127000032810D0B5F9063040F60D1203F287436B
:10128000934205D8B5F90E3003F28743934202D951
:10129000022385F8303003B0BDE8F08FB5F908308F
:1012A00003F287439342C3D8C5E7B5F90A3003F286
:1012B00087439342C9D8CBE7022385F83030D7E77C
:1012C0009F74002038B532220B4CFF213CF080FF88
:1012D00000232370FFF778FC05462078FFF76CFCAD
:1012E0000146284602F090FD237801332370BDE8C3
:1012F000384002F023BD00BF9E7400202DE9F04F5E
:10130000B94C06464FF4C872002187B020463CF025
:101310005FFFB07A03F0A2FCB44BB54A62610546A8
:101320000FCB84E80F000023C4E906332382B14ABF
:10133000B37A1570072B00F23A83DFE813F08201CD
:10134000A201CD011103FE0108009D02CF02AA4BAC
:1013500002930B2709234FF0070E0A25DFF8C8C2B6
:101360000197CDE90335CDF814E04FF008084FF0B0
:10137000060B4FF0050A042303210222029DB6F852
:101380000290100104EB0212C2E9025C24F8009002
:101390000020506004EB01120901B6F80C9024F80B
:1013A0000190C2E90105C2F80CC0029871881A01C7
:1013B00004EB0313C3E9020CA15200225A604FEA66
:1013C0000A1304EB0A1AB189E152CAE9012004EBBD
:1013D0000B13CAF80CC04FEA0B1B7088874924F81E
:1013E0000B005A60C3F80CC09960DFF840A2039D5F
:1013F000DFF83C929AE80F0004EB0E1E8EE80F0017
:1014000004EB081E4FEA08134FF00008CEE90288EB
:101410000AF1100A24F803809AE80F00CEF804902D
:101420004FEA051B04EB0519049DB6F806A0C9F8A0
:10143000048004EB051E029DAAF5A07AC9E9025CAE
:1014400024F80BA08EE80F00B37A072B54D8DFE8FE
:1014500013F04500F40008008A01F1008500F8014E
:10146000A601674A67486849019DB6F802E02B016A
:1014700004EB0515C5E9022C24F803E07B1C4FF0B2
:10148000000E9BB2C5F804E01D0104EB0313B6F88F
:101490000CE024F805E00237C3E90101BFB2C3F84C
:1014A0000CC00197019DB6F802E02B0104EB051575
:1014B000C5E9022C24F803E07B1C9BB24FF0000E20
:1014C000C5F804E01A0104EB0313B589A5520237ED
:1014D000C3E90101BFB2C3F80CC00197019B718839
:1014E0001A0104EB0313A15202990137C3E9021C4C
:1014F000BFB2002201975A60444B019D0FCB04EB11
:10150000051585E80F00B37A7A1C95B2072B00F217
:101510004C82DFE803F0211F1D041F1D04043C4B17
:101520000FCB04EB051585E80F000237BFB2022090
:10153000FFF7CAFB1022002105463CF049FE354A60
:10154000354B2F80C5E90142EB6007B0BDE8F08F55
:10155000324BE5E7324BE3E7324BE1E729482A49D2
:10156000019A130104EB02157288E252029A7B1C65
:10157000C5E9022C9BB24FF0000EC5F804E01A0139
:1015800004EB0313B589A5520237C3E90101BFB2C9
:10159000C3F80CC00197019A7588130104EB02127D
:1015A000E552029D7B1CC2E9025C4FF000089BB231
:1015B000C2F804801A01B6F80CE024F802E004EB4B
:1015C0000313C3E90101BA1C92B2C3F80CC003377C
:1015D00004EB021312017188A152BFB2C3E9018565
:1015E000C3F80CC0019787E7E819002098E80300CA
:1015F000193D00009F740020CD4400004D460000BE
:10160000CD45000049110000D1460000C8E80300A4
:10161000E8E80300C51200006D11000008E90300AE
:10162000F8E80300D8E8030061480000A8E80300D8
:10163000894B0000A348A449ADE7A44AA148A249A8
:1016400030E7A34B02934FF006090523CDE9033998
:1016500007274FF0030EDFF880C20197CDF814E0A2
:101660004FF004084FF0020B4FEA0B127188994BB0
:10167000A15204EB0B1B0022CBE90123CBF80CC0D9
:10168000B3E6934B02934FF0080A072309274FF064
:10169000050E8E4ADFF840C20197CDE9033ACDF836
:1016A00014E04FF006084FF0040B4FF0030A02233A
:1016B000190104EB031370886052C3E9022C002166
:1016C00059604FEA0A13B089E05204EB0A12029BF8
:1016D0005160C2E9023CC7E77D4B02934FF00A0B11
:1016E00009230B274FF0070E784ADFF8ECC101976A
:1016F000CDE9033BCDF814E04FF008084FF0060B9E
:101700004FF0050A0423032002214FEA011904EBDC
:101710000111758824F80950C1E9022C4FF0000925
:10172000C1F8049004EB00110001B589255202981C
:10173000C1F80490C1E9020CBAE7654B029309278E
:1017400007234FF0050E0820CDE90330DFF888C1EC
:101750000197CDF814E04FF006084FF0040B4FF05E
:10176000030A022321E6019A059F130104EB0215E7
:101770007288E252554AC5F80CC00021C5E9011231
:101780007B1D1901B089605204EB03134D484E498B
:10179000C3F80CC00637C3E90101019764E6019A5A
:1017A000059F130104EB02157288E252029BC5E902
:1017B000023C00217A1D69601301B089E052414D5D
:1017C000414804EB0212C2E90150BB1DC2F80CC033
:1017D0001A017788A7523D4F059A04EB0313C3E91A
:1017E000027C073259601301B789E75204EB0212F9
:1017F000059BC2F80CC0C2E9015008331A01778872
:10180000A752029F059A04EB0313C3E9027C093235
:1018100059601301B789E752059F04EB0212C2E930
:1018200001503B460A33C2F80CC01A017088A0521E
:1018300004EB0313029A59600B37C3E9022C01979A
:101840005AE6019A02990598130104EB0215728871
:10185000E252C5E9021C431D00226A601A01B189E7
:10186000A15204EB0313871D17491648C3F80CC097
:10187000C3E90101019773E67388154923840023A6
:10188000C4E90931DFF850C0C4F82CC0B289029114
:10189000C4E90D314FF00C080B230D274FF0090E52
:1018A000CDE9033822860197C4F83CC0CDF814E096
:1018B0004FF00A084FF0080B4FF0070A06230521E6
:1018C00004225BE549110000D1460000CD4500002F
:1018D000CD4400004D4600006148000073883C483C
:1018E00023840023C4E90930DFF8F0C0C4F82CC019
:1018F000B2892286C4E90D30364AC4F83CC07188EA
:10190000A4F84010C4E9122C6364B289A4F85020F2
:10191000C4E91530C4F85CC07288A4F86020C4E93A
:101920001930C4F86CC0B289A4F87020C4E91D3025
:10193000C4F87CC07188284A02900D27A4F8801052
:101940004FF0090EC4F884300C210B23C4E9222C7B
:10195000CDE903310197CDF814E04FF00A0844E5D2
:1019600073881C4A23840023C4E90932DFF86CC061
:10197000C4F82CC0B189164821860D270C214FF0E0
:10198000090E63630B23CDE90331C4E90E0C029009
:101990000197CDF814E04FF00A084FF0080B4FF014
:1019A000070A062305200421AFE62F46BFE5084BB2
:1019B000DFF828C00627CDE901734FF0020E04239B
:1019C0000522CDE90332CDF814E04FF003080CE511
:1019D000CD440000CD4500004D46000061480000A8
:1019E0002DE9F04FB74C05464FF4C872002185B081
:1019F00020463CF0EDFBA87A03F030F9B24BB34A35
:101A0000626106460FCB84E80F000023C4E9063369
:101A10002382AF4AAB7A1670072B00F21883DFE8F7
:101A200013F071018901B501F102EA010800850294
:101A3000A802A84B00930A22A74B03930292DFF857
:101A4000B4A2A64B072201920B264FF0090C4FF0CF
:101A5000080E4FF0060B0522042103204FF0020868
:101A60004FEA08196F8824F8097004EB0818009FE2
:101A7000C8F80C704FF00009C8F80830C8F8049096
:101A8000039FB5F80C904FEA001804EB0010C0E972
:101A9000017A24F80890009FC7600801B5F8028019
:101AA00024F8008004EB0111009F8B600020CF60C0
:101AB00048601301A989E152039904EB0212C2E9BB
:101AC000011A04EB0B13D7604FEA0B1B6988844A99
:101AD00024F80B105860DF609A60DFF81C82019FC9
:101AE000DFF8189298E80F0004EB071A8AE80F0055
:101AF0004FEA0E1208F1600304EB0E1E4FF00008CF
:101B0000CEE9028824F802800FCBCEF80490029F21
:101B1000B5F80690DFF8E8A14FEA0C1B04EB071EAE
:101B200004EB0C1C009FCCF80480A9F5A079CCE94B
:101B300002A724F80B908EE80F00AB7A072B40D851
:101B4000DFE813F03300BD0008006E01BA007E002C
:101B5000DA018701624A698833010020E15204EB0F
:101B60000611C1E90227731C4860190104EB031335
:101B7000B5F80CC024F801C0C3E901020236DF60E9
:101B800033016988E15204EB0611C1E90227731C95
:101B900000204860190104EB0313B5F80CC024F8C9
:101BA00001C0C3E901020236DF6032016988A15237
:101BB0004C4A009804EB06130021C3E90112D860D7
:101BC0000136494B0FCB04EB061787E80F00AA7AC2
:101BD000731C072A00F23982DFE802F02C26200469
:101BE0002620040419014FF4A46004EB031300221F
:101BF000C3E9012260520236DA600220FFF764F87E
:101C00001022002105463CF0E3FA384A384B2E807A
:101C1000C5E90142EB6005B0BDE8F08F19014FF452
:101C2000806004EB0313E2E719014FF4387004EB12
:101C30000313DCE719014FF4E07004EB0313D6E75C
:101C4000274A264B688831014FF0000C605204EBA4
:101C50000610C0E90237711CC0F804C0080104EB8B
:101C60000111B5F80CE024F800E0C1E901C2023628
:101C7000CF6004EB061C310168886052CCE9023762
:101C8000711C0020CCF804000B01B5F80CC024F83E
:101C900003C004EB0113C3E90102B11CDF6004EBD4
:101CA00001130901B5F802C00E4A24F801C05860BA
:101CB0000336DF609A6084E7094A084BD9E7084A8F
:101CC0005EE700BFE819002018E90300F53C0000BA
:101CD0009F7400206148000049110000CD450000BC
:101CE000CD44000079450000A8E80300C5120000BB
:101CF0006D110000D1460000C8E80300894B0000C8
:101D000095450000B94B009306230293B84A03237C
:101D1000019307264FF0050C4FF0040E0223190122
:101D200004EB0313688860529A600021009ADA601D
:101D30005960D2E6AD4B0093AE4B03930823029358
:101D4000AB4ADFF8BCA20523019309264FF0070C2C
:101D50004FF0060E04234FF0030B02210801B5F8E3
:101D6000028024F8008004EB0111009F8A600020AB
:101D7000CF6048604FEA0B11A889605204EB0B1B3F
:101D80000399CBF80C70CBE9011AC8E7974B009385
:101D9000984B03930A230293954ADFF864A2072322
:101DA00001930B264FF0090C4FF0080E06234FF05D
:101DB000050B042103204FF002084FEA08196F8831
:101DC00024F8097004EB0818009FC8F80C704FF055
:101DD0000009039FC8F80820C8F804904FEA0018CB
:101DE00004EB0010B5F80C9024F80890C0E9017AD3
:101DF000009FC760B2E77D4B009308227D4B0292A3
:101E0000052203930192DFF8F8A17B4B09264FF0DE
:101E1000070C4FF0060E4FF0040B032202213CE6A4
:101E200033016A88E252724A019F009B04EB061656
:101E30000021C6E90112F3607B1D180104EB0313B6
:101E4000AE892652C3E901120099D960BE1D0F4622
:101E500081E604EB06123301674E019F6988E15267
:101E60004FF0000EC2E901E6009BD360791D0A0124
:101E7000A889A0525E4804EB0111C1E90203BA1D12
:101E8000C1F804E0110104EB0212B5F802C024F815
:101E900001C0C2E901E0F91DD3600A01B5F80CC028
:101EA00024F802C004EB0111C1E901E03A4608320E
:101EB000CB601101B5F802C024F801C004EB021296
:101EC000C2E901E639460931D3600A01AE89A6525A
:101ED00004EB0111C1E901E03A460A32CB6010017E
:101EE00046496E88265204EB0212C2E9021307F13A
:101EF0000B06C2F804E064E633016A88E2523E4B06
:101F0000019F009A04EB06160020C6E90103791D23
:101F1000F2600A0104EB0111AE89A6524860344A0E
:101F20000098BE1DC1E9022007468BE66A88324B45
:101F300022840022C4E909232C48E062AA892D49A1
:101F4000DFF8BCA022860C2202920922C4E90D1AF5
:101F500000900391E06301920D264FF00B0C4FF0BF
:101F60000A0E4FF0080B0722062105204FF0040847
:101F700076E5214B6A881D4F1E4E214822840021A0
:101F8000C4E90913E762AA892286C4E90D60184AE8
:101F9000E763B5F802C0A4F840C0C4E91227616441
:101FA000B5F80CC0A4F850C0C4E91560E765B5F8F1
:101FB00002C0A4F860C0C4E91913E766AB89A4F8AD
:101FC0007030C4E91D60E7676B880097A4F8803023
:101FD0000C2302930923C4E922270D26C4F8841098
:101FE0004FF00B0C4FF00A0E019376E561480000AC
:101FF000CD44000049110000CD45000079450000A6
:10200000D14600006B88184A23840023C4E90932B2
:102010001648E062AB891649DFF858A023860C23E6
:1020200002930923C4E90D1A00900391E063019320
:102030000D264FF00B0C4FF00A0E08234FF0070B44
:10204000062105204FF00408B7E61E46D5E5074BEC
:10205000009305230293022306264FF0040C4FF051
:10206000030E019339E500BFCD4400006148000034
:1020700049110000D146000038B504461D46FEF760
:102080001BFE02236560637038BD00BF38B504468F
:102090001D46FEF711FE02236560637038BD00BF68
:1020A000704700BF70B50B4B1C6802F0FBFBE06093
:1020B00001F07AFF20720020FEF77EFD0546FEF754
:1020C00083FDA21C034621462846BDE8704001F06E
:1020D00089B800BF781B002038B50C4A4FF0FF3399
:1020E0000025C0E900334372036105761060FEF7F6
:1020F0006BFD04462846FEF75FFD0146204601F0D1
:1021000083FEBDE8384001F04FBE00BF781B0020C1
:102110002DE9F0474C4C4D4E4D4B6362074696E817
:102120000F0006F1100504F1100C8CE80F0095E883
:102130000F0004F1300C06F120058CE80F0095E843
:102140000F00DFF82481DFF82491DFF824C104F1C7
:10215000400585E80F000025C4E90185C4E90A555A
:10216000E560258406F1300325807A88A4F85020A4
:102170000FCBC4E91559C4F85CC004F1700EB7F870
:1021800004A0C4F86CC08EE80F00C4E92585C4E93A
:102190002255C4E92A552F492F4A304B6566AAF5C6
:1021A000247AA4F860A0A4F88050A4F89050C4F851
:1021B0009C50A4F8A050A166C4F8A430C4F88420B0
:1021C0007A88DFF8B0E0DFF8B080520806F140030B
:1021D000A4F8B020C4F8B4500FCBC4E92E9C04F18D
:1021E000D00AB7F80290C4F8CCC08AE80F0006F114
:1021F00050030FCB603604F1E00787E80F0096E844
:102200000F004FEA590904F58076C4F8F4E0C4E9F8
:102210003E55C4F8C450A4F8F050A4F8C090C4F8D7
:10222000C88086E80F000320FEF74EFD29461022E5
:1022300005463BF0CDFF0A4A0A4B6C60C5E9022314
:1022400011212980BDE8F0877C1B002038E90300BC
:10225000193D0000CD44000089480000F53C000015
:10226000D9200000A1200000FD4600004D460000DE
:10227000614800003D400000B14500002DE9F047F5
:102280004A4C4B4E4B4B636206F1700307460FCB33
:1022900006F1800504F1100C8CE80F0095E80F00A2
:1022A00004F1300C06F190058CE80F0095E80F0062
:1022B000DFF80C91DFF80C81DFF80CE1DFF80CA1FE
:1022C000002504F1400C8CE80F00C4E90255C4E974
:1022D0000A5525802584C4F80490C4E91655C4E93C
:1022E0001A55C4F86480DFF8E880A4F85050A4F8C8
:1022F0006050C4F854E07A88DFF8D8E0C4F87CE095
:10230000C4E91D58A4F8702006F1A003B7F804C072
:10231000C4F8B4900FCBACF5247CA4F880C0DFF8EF
:10232000B8C0C4F8A4C004F1900906F1B00CC4F818
:102330008CE0C4E92A55C4F88450A4F8A050A4F84D
:10234000B050C4F8B850C4F888A089E80F009CE8E1
:102350000F00C4F8BC5006F1500C04F1D0097F887E
:10236000A4F8C07089E80F009CE80F00603604F103
:10237000E00787E80F0096E80F0004F1F00686E812
:102380000F000320C4E93158C4F8CCE0FEF79CFCF0
:102390002946102205463BF01BFF074A074B6C609D
:1023A000C5E9022310212980BDE8F0877C1B0020AD
:1023B00038E90300193D0000D9200000A1200000E9
:1023C000FD4600003D400000F53C00009545000042
:1023D000CD440000614800008948000038B504463B
:1023E0001D46FEF769FC03236560637038BD00BFBE
:1023F00038B504461D46FEF75FFC03236560637035
:1024000038BD00BF704700BF054A064B106806493B
:10241000064AC068186000230B701370704700BF35
:10242000981D0020941D0020A1740020A07400209D
:102430002DE9F84F2DED028B594BDFF87CC11A685E
:10244000DFF87881D2F80490564A574B12689CF80E
:102450000010D8F80040DFF868E11F780026334606
:10246000002A00F098805078E8B9556895F90A007C
:1024700095F90CA080B240EA0A402060D06820B3F1
:102480005678B6B93146024601333F2B04F10404B5
:102490004FF00106E4D1434B8CF800101A60BDECFC
:1024A000028BBDE8F88F022851D001286BD0D0688C
:1024B00058B10131C9B2B1FBF7F607FB1616F6B2F7
:1024C000002E04BF00210246DEE70EB18CF800109A
:1024D00001333F2B50D0354E354F31789FED358A43
:1024E0005C1C4FF0040A09B33B78A200042B09EBF3
:1024F000030CA2F1040203F1040B3BD89CF805E0A5
:102500009CF808009CF806309CF807C087F800B0DB
:1025100040EA0E6040EA0340D8F8003040EA0C2060
:102520003F2C985028D001340029DDD186F800A036
:1025300001F034FD30EE080AA200D8F8003010EEA9
:10254000101A043A3F2C995016D03178EBE7D2F8A4
:1025500004A00AEB41009AF830B000893AF811A0C3
:10256000C0F30D0040EA0B700EEA8A3A40EA0A0016
:10257000206083E73F2CD6D10A4B00221A60BDECC5
:10258000028BBDE8F88F5068D0F800A0007A40EACE
:102590000A40206072E7002E9DD08CF800109AE768
:1025A000981D0020941D0020A3740020A07400201A
:1025B000A174002000000000A27400208C1C0020E8
:1025C00000C0FF0F2DE9F04F6C4B6D4A1B6814687B
:1025D000D3F8048083B001F029FD002800F0BB800F
:1025E00098F80430002B18BF0323664ADFF8A0A137
:1025F000DFF8A0B16449D2F800E0DAF800009BF8F7
:1026000000200F7888F80430002601907146334688
:10261000002C00F0AA80657805BB0D68D4F804C0D2
:102620002D0C8CF80D500D688CF80B50E5683DB3FF
:102630006678CEB932462C4601333F2B00F10100BB
:1026400001F104014FF00106E2D14D4BCAF8000040
:102650008BF800201C6003B0BDE8F08F022D4AD03B
:10266000012D5BD0E5685DB10132D2B2B2FBF7F665
:1026700007FB1626F6B2002E04BF00222C46DBE72D
:10268000002E66D08BF80020013301303F2BCAF8B2
:10269000000058D03D4FDFF800C139789CF8002089
:1026A00000240EEB83050133A64659B92968C8F802
:1026B00018103F2B51D04FF0010E04210133043587
:1026C0000029F3D0042A08EB020602F104092FD8EE
:1026D0002A68120E72732A68120CB2732A68120AE0
:1026E000F2732A6832743F2B5FFA89F200F101001D
:1026F00036D00124E2E7D4F804C00D680CEB42099F
:1027000045F38D35A9F810500D6845F30D05A9F86E
:1027100018500D682D0F8CF8315087E70D68D4F8EC
:1027200004C02D0CCCF804500D688CF809507DE7DE
:102730003F2BC3D1BEF1000F00D039701CB18CF813
:102740000020CAF800000E4B00241C6003B0BDE856
:10275000F08F019898E7032347E704233B70EDE7E8
:10276000BEF1000FEBD03970E9E726B1CAF80000DE
:102770008BF800208EE701988CE700BF981D0020A1
:10278000941D00208C1C0020A3740020A074002045
:10279000901D0020A4740020A174002038B501F021
:1027A0008BFC01F05BFA0B4B0B491A680B4BD268A0
:1027B0001A600B46FD2203F8012B0948094D0A4C0B
:1027C000036000222A702270FC20BDE8384001F02E
:1027D00031BB00BF981D0020901C0020941D0020DC
:1027E0008C1C0020A2740020A47400202DE9F84F56
:1027F00007464FF4F0720021EE483BF0E9FCB87A4E
:1028000002F02CFAEC4A3B7D1070002B40F0138252
:10281000DFF8B4C3E94BE74CE94D3E69BF88E3609C
:1028200095E80F00DFF8A493DFF8A483DFF8A4E3B2
:10283000C4F80480013EB608A9FB069604F110090D
:1028400089E80F0005F110030FCBF6080136A7F554
:10285000247704F12008F6B22780C4F83CC0771E24
:1028600088E80F00C4F808E0DFF86C83DFF86CE359
:102870004FF49649002FC4E90D8EA4F8309040F330
:10288000DD81203595E80F0004F1400A012FC4E9ED
:10289000158EA4F85090C4F85CC08AE80F0000F0D0
:1028A000918004F1600A022FC4E91D8EA4F8709093
:1028B000C4F87CC08AE80F0000F0848004F1800A2C
:1028C000032FC4E9258EA4F89090C4F89CC08AE830
:1028D0000F0077D004F1A00A042FC4E92D8EA4F8CC
:1028E000B090C4F8BCC08AE80F006BD004F1C00AF5
:1028F000052FC4E9358EA4F8D090C4F8DCC08AE86E
:102900000F005FD004F1E00A062FC4E93D8EA4F861
:10291000F090C4F8FCC08AE80F0053D004F5807A28
:10292000072FC4E9458EA4F81091C4F81CC18AE8A9
:102930000F0047D004F5907A082FC4E94D8EA4F813
:102940003091C4F83CC18AE80F003BD004F5A07A6E
:10295000092FC4E9558EA4F85091C4F85CC18AE8E7
:102960000F002FD004F5B0794FF4964A0A2FC4E92E
:102970005EECC4F8748189E80F00A4F870A121D03E
:1029800009F1200B0B2FC4E9658EA4F890A1C4F8BF
:102990009CC18BE80F0015D009F1400B0C2FC4E946
:1029A0006D8EA4F8B0A1C4F8BCC18BE80F0009D0AB
:1029B00009F16009C4E9758EA4F8D0A1C4F8DCC19E
:1029C00089E80F007F4DDFF8189295E80F0006F1B7
:1029D000010C4FEA460805F1100E04EB4C1C8CE884
:1029E0000F009EE80F0008F1030E4FEA0E1A4FF099
:1029F000000C04EB0E1ECEE902CC24F80AC008F14C
:102A0000040CCEF8049004EB0C1C05F1200E8CE8AD
:102A10000F009EE80F0008F1050C05F1300E04EBE5
:102A20000C1C8CE80F009EE80F0008F1060C04EB6C
:102A30000C1CA5F1300E8CE80F009EE80F0008F189
:102A4000070C04EB0C1C203D8CE80F0095E80F00F0
:102A500008F1080C04EB0C1C012F8CE80F0008F1A6
:102A6000090C00F0CD809EE80F0004EB0C1989E8FA
:102A70000F0095E80F0008F10A0904EB0919022F6D
:102A800089E80F0008F10B0900F0BA809EE80F00FA
:102A900004EB091989E80F0095E80F0008F10C090B
:102AA00004EB0919032F89E80F0008F10D0900F064
:102AB000A7809EE80F0004EB091989E80F0095E84C
:102AC0000F0008F10E0904EB0919042F89E80F0023
:102AD00008F10F0900F094809EE80F0004EB09193B
:102AE00089E80F0095E80F0008F1100904EB0919B7
:102AF000052F89E80F0008F1110900F081809EE898
:102B00000F0004EB091989E80F0095E80F0008F1A0
:102B1000120904EB0919062F89E80F0008F11309BF
:102B20006ED09EE80F0004EB091989E80F0095E8C4
:102B30000F0008F1140904EB0919072F89E80F00A9
:102B400008F115095CD09EE80F0004EB091989E82B
:102B50000F0095E80F0008F1160904EB0919082F7A
:102B600089E80F0008F117094AD09EE80F0004EB2E
:102B7000091989E80F0095E80F0008F1180904EB1E
:102B80000919092F89E80F0008F1190938D09EE8C2
:102B90000F0004EB091989E80F0095E80F0008F110
:102BA0001A0904EB09190A2F89E80F0008F11B091B
:102BB00026D017E09C1D0020A3740020614800006F
:102BC000F8E9030058EA0300A13C00002108822034
:102BD000054400004D4600005D3C0000CD4400006F
:102BE000092400009EE80F0004EB091787E80F0096
:102BF00095E80F0008F11C0804EB081888E80F009E
:102C0000023E0CEB4606771CBFB2204B0FCB04EB09
:102C1000061686E80F000420FEF756F81022002161
:102C200005463BF0D5FA1A4A1A4B2F80C5E90142F6
:102C3000EB60BDE8F88F184B9C46ECE505F16003AE
:102C40000FCB05F1700604F1400787E80F0096E806
:102C50000F0004F1600705F1800687E80F0096E891
:102C60000F00903504F1700686E80F0095E80F001C
:102C700000260A4FA4F8506004F18005C4E91666E6
:102C80006765092685E80F000A27BEE748EA0300C2
:102C90009D27000005240000614800000924000071
:102CA0002DE9F843F14FF24CDFF8D08306464FF49C
:102CB000F072002138463BF08BFAB07A01F0CEFF7B
:102CC000EC4BB588187094E80F0007F110093669CD
:102CD000DFF8ACE3C7F804E089E80F00A4F12003B3
:102CE0000FCB013EB608A8FB068607F1200888E84E
:102CF0000F00F60814E90F000136F6B2A5F52475A9
:102D000006F1FF3EDFF87CC3DFF87C833D80BEF137
:102D1000000F07F1300585E80F00C7F808C0C7F8B5
:102D20000C8040F3EF81A4F1700595E80F0007F1E6
:102D3000400C603C8CE80F0094E80F0007F1500C49
:102D4000BEF1010F8CE80F0000F0B48095E80F0091
:102D500007F1600C8CE80F0094E80F0007F1700C8D
:102D6000BEF1020F8CE80F0000F0A48095E80F0080
:102D700007F1800C8CE80F0094E80F0007F1900C2D
:102D8000BEF1030F8CE80F0000F0948095E80F006F
:102D900007F1A00C8CE80F0094E80F0007F1B00CCD
:102DA000BEF1040F8CE80F0000F0848095E80F005E
:102DB00007F1C00C8CE80F0094E80F0007F1D00C6D
:102DC000BEF1050F8CE80F0074D095E80F0007F1F5
:102DD000E00C8CE80F0094E80F0007F1F00CBEF156
:102DE000060F8CE80F0065D095E80F0007F5807C92
:102DF0008CE80F0094E80F0007F5887CBEF1070F00
:102E00008CE80F0056D095E80F0007F5907C8CE811
:102E10000F0094E80F0007F5987CBEF1080F8CE8CE
:102E20000F0047D095E80F0007F5A07C8CE80F0055
:102E300094E80F0007F5A87CBEF1090F8CE80F009D
:102E400038D095E80F000CF1100C8CE80F0094E8D6
:102E50000F000CF11008BEF10A0F88E80F0029D00E
:102E600095E80F000CF1200888E80F0094E80F00A7
:102E70000CF13008BEF10B0F88E80F001AD095E86E
:102E80000F000CF1400888E80F0094E80F000CF1E7
:102E90005008BEF10C0F88E80F000BD095E80F002A
:102EA0000CF1600585E80F0094E80F000CF1700C40
:102EB0008CE80F00704C94E80F00751C04F1100CA6
:102EC00007EB451585E80F009CE80F004FEA460820
:102ED00008F10305A4F1C00C07EB051585E80F0008
:102EE0009CE80F0008F10405A4F1200C07EB051580
:102EF00085E80F009CE80F0008F1050507EB0515B4
:102F0000B03C85E80F0094E80F0008F1060507EBD8
:102F1000051585E80F009CE80F0008F1070507EB91
:102F20000515BEF1010F85E80F0008F1080500F056
:102F3000CE8094E80F0007EB051989E80F009CE8A4
:102F40000F0008F1090907EB0919BEF1020F89E822
:102F50000F0008F10A0900F0BA8094E80F0007EBAF
:102F6000091989E80F009CE80F0008F10B0907EB2D
:102F70000919BEF1030F89E80F0008F10C0900F0F0
:102F8000A68094E80F0007EB091989E80F009CE878
:102F90000F0008F10D0907EB0919BEF1040F89E8CC
:102FA0000F0008F10E0900F0928094E80F0007EB83
:102FB000091989E80F009CE80F0008F10F0907EBD9
:102FC0000919BEF1050F89E80F0008F110097ED03C
:102FD00094E80F0007EB091989E80F009CE80F003F
:102FE00008F1110907EB0919BEF1060F89E80F0076
:102FF00008F112096BD094E80F0007EB091989E872
:103000000F009CE80F0008F1130907EB0919BEF146
:10301000070F89E80F0008F1140958D094E80F0051
:1030200007EB091989E80F009CE80F0008F1150962
:1030300007EB0919BEF1080F89E80F0008F116091E
:1030400045D094E80F0007EB091989E80F009CE8C8
:103050000F0008F1170907EB0919BEF1090F89E8FC
:103060000F0008F1180932D010E000BF9C1D0020AD
:1030700098EA0300A3740020C8EA03002108822014
:1030800005440000954500006148000094E80F00E9
:1030900007EB091989E80F009CE80F0008F11909EE
:1030A00007EB0919BEF10A0F89E80F0008F11A09A8
:1030B0000DD094E80F0007EB091484E80F009CE89A
:1030C0000F0008F11B0807EB081888E80F00023E04
:1030D00005EB4606751CADB21B4B0FCB07EB061676
:1030E00086E80F000420FDF7EFFD102200210446C2
:1030F0003BF06EF8154A164B2580C4E90172E36077
:10310000BDE8F88304F130030FCB04F1400507F16B
:10311000400686E80F0095E80F0007F15006A4F17D
:10312000900586E80F0095E80F00103407F1600560
:1031300085E80F0094E80F0007F1700484E80F00A1
:1031400009250826C8E700BFB8EA03009D2700004C
:103150000524000070B51C460646FDF7ADFD0C4A7F
:103160000C4B746000250421717016600A482560BC
:1031700025712946FD221D603BF02AF8C4F8055050
:10318000C4F80D50C4F80950C4F8115070BD00BF08
:10319000981D0020941D0020901C002070B51C4636
:1031A0000646FDF789FD0C4A0C4B7460002504218E
:1031B000717016600A48256025712946FD221D6040
:1031C0003BF006F8C4F80550C4F80D50C4F8095097
:1031D000C4F8115070BD00BF981D0020941D002040
:1031E000901C00202DE9F04F33F0030E43D04FF038
:1031F0000009C846044600EB8E0CD4E900B6D4E9B9
:1032000002574BF30B0A4BF30B3BD044CB4446F332
:103210000B0A46F30B36C2445E4445F30B081034E8
:1032200045F30B353544D04447F30B06A44547F32B
:103230000B37B04407EB0509DFD1734512D90EF106
:10324000804E061F0EF1FF3E00EB8E0006EB83065C
:1032500050F8044F44F30B05864244F30B34A84462
:10326000A144F5D198FBF3F899FBF3F3A1F80080A2
:103270001380BDE8F08FF146F046DEE7B2B3F8B553
:103280002DED068B9FED1AAADFED1A9A9FED1A9A83
:10329000174606460D46002407EE904AF8EEE77AF8
:1032A000F0EE698AE7EE8A8A013468EE898AB0EE28
:1032B000680A2EF083FAB0EE408AB0EE680A2EF06B
:1032C00031FAD5ED007AD6ED006A28EE677A67EE1E
:1032D000807AA6EE807AA742E6EE887AA6EC017A9A
:1032E000E5EC017AD8D1BDEC068BF8BD704700BF84
:1032F00000247449180D0F4F2DEE86322DE9F84F3A
:1033000041F230420446B54B41F234464FF00041A1
:10331000A15041F21A4593F90A2093F90B106FF06E
:103320000047A75141F21C405E8966537F2A9D8960
:103330002552D5B2C8B200F0C3827F2900F0B28214
:1033400093F91A209542C4BF41F21A41625493F98D
:103350001B108842C4BF41F21B4021547F2A00F059
:10336000CB827F2900F0908241F21A4141F21B404A
:10337000655C93F92A20205C93F92B30AA42B8BFF0
:1033800062548342BCBF41F21B4163547F2A00F068
:10339000A5827F2B00F06A8241F2384141F23C4223
:1033A00000236350A35000F0F9FD8D4BDFED8D7AC3
:1033B0009869197904F5A25330EE270A586041F252
:1033C0001C4641F21B4541F21D4241F21A4083ED79
:1033D000000AA357655DA256205C15FA83F310FA24
:1033E00082F2134441F219425B100329A3540BD11A
:1033F00041F21E43E25C022A98BFE15441F2484286
:10340000A35843F00403A35004F5A15741F23445F7
:10341000754B6259BC4639464FF0000B254403F208
:10342000DC501C370CF1180C103105E0012E00F0B7
:10343000A180143398427BD05E78022E00F0D680B3
:10344000032EF3D1D3F804E01E78BEF9008007EE16
:10345000908AF8EEE77A04EB8606C6ED017ABEF9AB
:10346000028007EE908AF8EEE77AC6ED517ABEF94F
:10347000048007EE908AF8EEE77AC6EDA17ABEF9ED
:10348000068007EE908AF8EEE77AC6EDF17A9EF8AC
:1034900008607E2E14D89EF809607E2E10D8DEE9D2
:1034A0000398DCF80060C1458BBF4E444644A6EB50
:1034B0000806A6EB0906CCF800603E6801363E60BF
:1034C0009EF81860022E00F05F810E68BEF900A021
:1034D000BEF90290BEF90480BEF906E0B245C4BF51
:1034E0005646C1F800A0B145C4BF4E46C1F8009091
:1034F000B045C4BF4646C1F80080B645C8BFC1F854
:1035000000E09245BCBF5246C5F800A04A4502DD26
:10351000C5F800904A469045BCBF4246C5F80080B9
:10352000964586DA14339842C5F800E0724683D196
:1035300012F5AF6FC0F28C8141F23043E358B3F51E
:10354000AF6F00F3858104F5A0550435043404F50C
:10355000A07120465022FFF791FE04F5707104F52A
:103560002070502204F5A064FFF788FEAC42EED133
:10357000BDE8F88F1E78D3F804E004EB8606C6F8A1
:1035800004B0C6F844B1C6F884B2C6F8C4B39EF815
:1035900008607E2E3FF64DAF9EF809607E2E3FF606
:1035A00048AFDEF80080B8F1000F3FF442AFDEF81C
:1035B00004E0BEF1000F3FF43CAFDCF80060F045E2
:1035C0008BBF4644B644A6EB0E06AEEB0806CCF81D
:1035D00000603E6801363E602BE700BF00300020EF
:1035E000901F002000000000C0300020D3F804E04D
:1035F0001E78BEF9008007EE908AF8EEE77A04EBB9
:103600008606C6ED017ABEF9088007EE908AF8EECC
:10361000E77A06F20459C6ED517ABEF9108007EE3A
:10362000908AF8EEE77A06F2446AC6EDA17ABEF90E
:10363000188007EE908AF8EEE77AC6EDF17ABEF9C7
:10364000028007EE908AF8EEE77A06F28478C9EDF8
:10365000007ABEF90A9007EE909AF8EEE77A06F63D
:10366000C409CAED007ABEF912A007EE90AAF8EEDE
:10367000E77A06F6042AC8ED007ABEF91A8007EE4A
:10368000908AF8EEE77A06F64438C9ED007ABEF97A
:10369000049007EE909AF8EEE77A06F68449CAEDB0
:1036A000007ABEF90CA007EE90AAF8EEE77A06F6CB
:1036B000C45AC8ED007ABEF9148007EE908AF8EE7D
:1036C000E77A06F60478C9ED007ABEF91C9007EE99
:1036D000909AF8EEE77A06F58259CAED007ABEF9BB
:1036E00006A007EE90AAF8EEE77AC8ED007ABEF9D8
:1036F0000E8007EE908AF8EEE77A06F58C58C9ED51
:10370000017ABEF9169007EE909AF8EEE77A06F580
:103710009656C8ED017ABEF91E8007EE908AF8EE43
:10372000E77AC6ED017A9EF83060022E7AD0012E3B
:1037300066D09EF83160022E4CD0012E38D00E6833
:10374000BEF900A0BEF90890BEF91080BEF918E0DD
:10375000B245C4BF5646C1F800A0B145C4BF4E46ED
:10376000C1F80090B045C4BF4646C1F80080B645D8
:10377000C8BFC1F800E09245BCBF5246C5F800A0E2
:103780009145BFF6C8AEC3E641F21E4614F8068066
:10379000B8F1000F03D14FF0010804F8068041F2A0
:1037A000484854F8086046F0080644F808608CE67B
:1037B00041F21E4814F80890B9F1000F01D104F845
:1037C000086041F2484854F8086046F0800644F822
:1037D0000860B4E741F21E4614F80680B8F1000F05
:1037E00003D14FF0010804F8068041F2484854F82C
:1037F000086046F0400644F808609EF831609CE797
:1038000041F21E4814F80890B9F1000F01D104F8F4
:10381000086041F2484854F8086046F0100644F841
:10382000086086E741F21E4614F80680B8F1000FE2
:1038300003D14FF0010804F8068041F2484854F8DB
:10384000086046F0080644F808609EF830606EE7AD
:1038500041F21E43E25C012A9CBF0222E25441F283
:103860004842A35843F02003A3506CE641F21E43A4
:10387000E25C012A9CBF0222E25441F24842A35872
:1038800043F00203A35087E541F21E42A15C0129E7
:1038900001D80221A15441F24841625842F002028B
:1038A000625061E541F21E42A15C01299CBF0221E8
:1038B000A15441F24841625842F0020262503FE591
:1038C00041F21E42A15C01299CBF0221A15441F298
:1038D0004841625842F00102625031E541F21E4314
:1038E000E25C012A9CBF0222E25441F24842A35802
:1038F00043F00103A3504FE541F21E42A15C0129B0
:1039000001D80221A15441F24841625842F001021B
:10391000625029E5014B1988FDF748B89C36002014
:103920002DE9F0410C4B0D4D0D4E6A600C46002107
:10393000D960042701211F712B601974EE60017892
:10394000406800F0CFFCE368227A61682078BDE827
:10395000F04100F0C7BF00BFC01F0020AC1F002017
:10396000102F00202DE9F04FA749038E45680D6008
:103970000446007F8873A54E228F2778A44D3772A6
:103980001B019BB294F83A00B4F83680B4F834C006
:10399000277E3074A3F1A00E1201AA81A5F808E0D9
:1039A0002875AF72A068628E88604FEA08164FEAE9
:1039B0000C1C99B0A5F804C0EE8066682B8012013B
:1039C0000DF114086A80934994F800A04B224046F8
:1039D0003AF0F0FB3346C8F101000DF15E0283EAD4
:1039E000433383EA534300EB020C83EA4313B3FBF4
:1039F000FCF10CFB113192F800E018F801C008F856
:103A000001E002F801C99045E9D1834BA3FB0623ED
:103A1000DB0803EB8303C3EB031318AAF31A134465
:103A20007C4A13F84C0C002302E04A2900F0E9809C
:103A300012F801CB6045194603F10103F5D103915A
:103A4000384601F00BF9744B744A01920136A3FB1E
:103A50000623DB0803EB8303C3EB0313F61A18AB4F
:103A60001E44002216F84C3C009207466C4A02970E
:103A700004215046FDF7AAF80420FDF72BF96378DE
:103A8000002B00F0B880012B3CD14FF002082B89AD
:103A9000DFF8A0B1634F03EB0009234649265C46DB
:103AA0009B4610E0CDE900C41EF84C3CFDF78EF8B3
:103AB0004046FDF70FF92B899944731C814425D0AA
:103AC000013E143F343C731CDBB20DF1600E492EF5
:103AD00007F1140C3A46414650469E44E2D118AADA
:103AE000134401944E4A13F84C3C00923A46FDF7B9
:103AF0006DF84046FDF7EEF82B8999448144DFE7E5
:103B0000042A63D0032019B0BDE8F08F029B03EBB9
:103B10004307FFB25C467E1E002F46D0039BDFF8B2
:103B2000F8C04149CDF808C006EB860000EB8000E4
:103B30001844ACFB0023DB0803EB8303BA1EC3EB82
:103B4000031302EB8202C31A039802EB820202EB18
:103B5000000B0DE0344A03EB8303B74208BF9046E5
:103B6000C3EB0313ABEB03034146013EABF1190B6F
:103B70002E4A009106EB860802EB88082C4A25495C
:103B800002EB0612CB5C0192002142465046FDF743
:103B90001DF80020FDF79EF82A89029B1044A3FB24
:103BA0000B13DB088144002ED4D1484600F02AFED6
:103BB000A87A01F053F8154A00B20C23D6682B619D
:103BC00080007278022A10D09AD804332B61B6682C
:103BD000002EF6D120780E49FDF744F80B48FCF78B
:103BE000D1FE304619B0BDE8F08F03442B61B668B2
:103BF000002EE6D1EEE7237E002B83D14FF00108A3
:103C000045E7002303931BE7C01F0020AC1F0020E3
:103C10009C36002028EB0300B5814E1B901F00202E
:103C20007C1F002088360020C0300020102F00208C
:103C300000300020DC2E0020034AD2F86031012B36
:103C4000FBD11361704700BF00100040024B0022FF
:103C5000C3F80421704700BF00100040024B00224F
:103C6000C3F80C21704700BF00100040024B002237
:103C7000C3F8FC2F704700BF0010004010B5074C80
:103C800002E000F0B5FD18B9D4F80431002BF8D0EB
:103C9000024B0022C3F8042110BD00BF00100040F9
:103CA00010B5074C02E000F0A3FD18B9D4F80C31B0
:103CB000002BF8D0024B0022C3F80C2110BD00BF2E
:103CC0000010004010B5074C02E000F091FD18B95B
:103CD000D4F80031002BF8D0024B0022C3F80021A9
:103CE00010BD00BF00100040014B01229A607047D8
:103CF00000100040074BD3F80825D3F8101501F049
:103D00000F0103290CBF01210221521AC3F8082513
:103D1000704700BF00100040074BD3F80825D3F8C8
:103D2000101501F00F0103290CBF012102210A44E3
:103D3000C3F80825704700BF00100040194BD3F8A6
:103D40008C2522F07062C3F88C25D3F88425D3F833
:103D50008C15120302F070620A43C3F88C25D3F865
:103D6000882522F00062C3F88825D3F8882542F020
:103D70000062C3F88825D3F8902522F4E022C3F826
:103D80009025D3F8902542F48022C3F89025D3F8EB
:103D9000902522F48012C3F89025D3F89025C3F81B
:103DA0009025704700100040164BD3F8902522F460
:103DB0008012C3F89025D3F8902542F48012C3F8FE
:103DC0009025D3F8882522F00062C3F88825D3F81F
:103DD0008825C3F88825D3F8902522F4E022C3F87B
:103DE0009025D3F8902542F48022C3F89025D3F88B
:103DF000902522F48012C3F89025D3F89025C3F8BB
:103E00009025704700100040094B10B40122002497
:103E1000C3F8304AC3F8404AC3F8341AC3F8380A22
:103E2000C3F8442AC3F8302A5DF8044B704700BF3A
:103E30000010004030B40E4B0E4C002240F44030D5
:103E40000825C3F83021C3F81455C3F81805032515
:103E500040F25B60C3F83455C3F83C45C3F83805FD
:103E6000C3F8442AC3F8302AC3F8041530BC70479D
:103E70000010004055555500014BC3F80805704728
:103E800000100040024BD3F84004C0F300307047EC
:103E900000100040094BD3F84034C3F30C40DB0062
:103EA000064BD3F8402448BF40F4604047F6FF7308
:103EB00012F4805F08BF184600B27047001000403F
:103EC00030B52C4B9FED2C6AD3F810359FED2B7A33
:103ED000DFED2B6A07EE900A03F00F03032BF8EED9
:103EE000E77A18BFB0EE467A67EE877A83B0C7EEFE
:103EF000A67A17EE900A01F0B5F841EC100B34F0F9
:103F000095F951EC100B01F09FFB9FED1E7A07EE27
:103F1000900AF4EEC77AF1EE10FA0BDC9FED1A7AF4
:103F2000F4EEC77AF1EE10FA19D54FF400046FF0F1
:103F30007F0002E04FF4FE047F200E4A134DD2F8BA
:103F40008C1521F47F01C2F88C15D2F88C352343EF
:103F500043F00043C2F88C35287003B030BDFDEE4D
:103F6000E77ACDED017A9DF90400030403F47F04A0
:103F7000E3E700BF00100040BC6C1B45BC6C9B44D9
:103F80000024F4440000FE42000000C3A574002099
:103F9000014B1868704700BFE8360020014B93EDD5
:103FA000000A7047EC360020014B1878704700BFBC
:103FB000A6740020194BD3F80C05C3B2092B0FD8F7
:103FC00010F0FE0013D0033B062B24D8DFE803F0EB
:103FD0001B1D1F2119040600082070470920704787
:103FE000F82B0BD0FC2B08BF6FF0030000D17047FB
:103FF000F42B14BF00206FF00B0070476FF0070028
:104000007047072070470320704704207047052041
:104010007047062070470220704700BF0010004024
:1040200000487047B43600200D207047024BD3F88B
:10403000000400F001007047001000400A4BD3F864
:104040001C21012A06D000207F220849084B086065
:104050001A707047D3F848250021C3F81C11D3F813
:10406000240402F07F02F0E700100040E836002050
:10407000A674002070B5C4B220460D4600F00EF9BB
:104080000A4E30604DB90A4B00221A60094B0022DB
:10409000C3F80C07C3F8082770BD204600F016F9D6
:1040A000034B306883ED000AF0E700BFE8360020DC
:1040B000EC36002000100040024B0122C3F8082714
:1040C000704700BF00100040024B0022C3F81425C7
:1040D000704700BF00100040F0B4124B124AD3F8F2
:1040E000346AD3F8385AD3F8444AD3F8300A002156
:1040F000C3F8401A0D27C3F8342A0122C3F8387ACE
:10410000C3F8442AC3F8302AC3F860111A66C3F80A
:10411000346AC3F8385AC3F8444AC3F8300AF0BCCA
:10412000704700BF00100040B4360020F8B53422BC
:10413000044600214748484D484F3AF049F8484B5B
:104140004849494A49483C607F261E7000230B704D
:104150000126002103601160C5F8FC3FC5F8FC6F23
:10416000A368C5F80C35A07B00F082F8E378C5F8A9
:104170002435E378C5F860366378A17822781B048B
:1041800043EA016343EA0223C5F81C35237C003B64
:1041900018BF01231B06C5F814353B681B79013B8A
:1041A0001B0403F4E023C5F81835D5F89C3523F437
:1041B0007C13C5F89C35C5F83065237C3BBB0323D5
:1041C000C5F81035E37B012B29D0234B01211022A8
:1041D000C3F80817C3F80022D3F8502622F440721F
:1041E000C3F85026D3F8502642F40072C3F8502684
:1041F000D3F8502622F00102C3F85026D3F85026F7
:1042000000200A43C3F85026C3F83405F8BD012B3B
:1042100004BF0423C5F81035E37B012BD5D10E4B29
:10422000D3F8842522F08042C3F88425D3F884256E
:1042300042F08042C3F88425D3F8842522F400326A
:10424000C3F88425D3F8842542F40032C3F88425CA
:10425000BBE700BFB436002000100040F03600205D
:10426000A6740020A5740020EC360020E83600205B
:10427000014B1870704700BFA7740020064B93F9DC
:104280000030C01A1B2803DD442803DC1C387047AB
:104290000020704728207047A7740020094B93F92D
:1042A0000030C01A1B2806DD442807DC064B1C38EA
:1042B00053F8200070474FF40070704740F2377099
:1042C000704700BFA774002074EB030008B5FFF728
:1042D000D5FF034B03EB800090ED000A08BD00BF43
:1042E00018EC030010B40629114C0B46A8BF062396
:1042F0002370B9B10F4904780C60012B12D04478B7
:104300004C60022B0ED084788C60032B0AD0C478CA
:10431000CC60042B06D0062B047908BF43790C61CE
:1043200008BF4B61044B1A605DF8044B704700BF37
:10433000A8740020F8360020F43600201B4B1A78B1
:1043400082B310B41A481B490468012303FA04F429
:104350009A42C1F804451FD94468022A03FA04F4BA
:10436000C1F8044518D08468032A03FA04F4C1F89C
:10437000044511D0C468042A03FA04F4C1F80445C2
:104380000AD00469052A03FA04F4C1F8044503D0ED
:1043900042699340C1F80435074B00221A605DF86A
:1043A000044B7047044B00221A607047A874002029
:1043B000F836002000F0014010370020064B074976
:1043C000D3E90020012303FA02F28340C1F8082553
:1043D000C1F80835704700BFF836002000F00140F2
:1043E000064B0749D3E90020012303FA02F2834078
:1043F000C1F80425C1F80435704700BFF836002025
:1044000000F00140054B064A1B6812680549A233BB
:1044100002F5A07241F83320704700BFF836002043
:10442000F436002000F00140034B044A1B680449A5
:10443000A23342F833107047F836002000F00140F4
:104440000411004010B41E4B1A781E4B52B318686A
:104450001D4900F51174012A4FF0000041F82400B5
:1044600020D95C6804F51174022A41F8240019D09F
:104470009C6804F51174032A41F8240012D0DC680A
:1044800004F51174042A41F824000BD01C6904F5CA
:104490001174052A41F8240004D05A6902F51172FA
:1044A00041F8220019680848012202FA01F1C0F817
:1044B00008155B689A40C0F808255DF8044B704702
:1044C000A8740020F836002000F0014030B41A48EB
:1044D0001A4B04681A4D04F1A20103EBC10100223A
:1044E0004A60297831B304F51174012943F8242076
:1044F00020D9446804F51174022943F8242019D006
:10450000846804F51174032943F8242012D0C46888
:1045100004F51174042943F824200BD0046904F530
:104520001174052943F8242004D0416901F5117163
:1045300043F8212030BC7047F836002000F00140DD
:10454000A874002010B5034C236813B198470023CA
:10455000236010BD10370020044B054A1968054B35
:104560001268C9000B4440325A607047F836002088
:10457000F436002010F50140034A044B1268044948
:10458000D200134459607047F836002010F50140FE
:1045900010100040034A044B12680449D20013442F
:1045A00059607047F836002010F5014000100040B7
:1045B000034A044B12680449D200134459607047FF
:1045C000F836002010F5014008100040F0B587B023
:1045D00002A901A800F07AFA019D8DB319491A4E7B
:1045E0000A68002302F1A2070FE05CF8100CC2F881
:1045F00014050133DBB256F83700C2F810059D42AE
:104600004FEA53021CD951F82220D20006A802F129
:10461000804213F0010F4FEA530400EB830C02F5C4
:10462000F832E2D051F824205CF8100C013302F586
:104630001172DBB29D4246F822004FEA5302E2D8E3
:1046400007B0F0BDF836002000F00140034A044BEB
:1046500012680449D200134459607047F8360020AC
:1046600010F501400410004008B500F02DF9084B8A
:10467000084A5B6812680849DB0003F1804303F5D0
:10468000F83302F5A272C3F81025C3F8141508BD5B
:10469000F8360020F43600200010004008B500F085
:1046A00013F9084B084A5B6812680849DB0003F1FC
:1046B000804303F5F83302F5A272C3F81025C3F85E
:1046C000141508BDF8360020F43600200410004010
:1046D000034A044B12680449D200134459607047DE
:1046E000F836002010F5014060100040014B024AEE
:1046F0001A60704710370020D9400000074B084A65
:104700005B6812680749DB0003F1804303F5F83367
:104710004832C3F81015C3F814257047F836002046
:10472000F43600200411004030B4104B1049114CF5
:1047300018600023032501220B60C0F80855237080
:10474000C0F8103530BCC260C0F84035C0F8443500
:10475000C0F84835C0F84C35C0F84031C0F8443195
:10476000C0F84831C0F84C31704700BF1437002002
:1047700020370020A97400200B4B0C491B68002235
:104780000120D8600A70C3F84025C3F84425C3F857
:104790004825C3F84C25C3F84021C3F84421C3F889
:1047A0004821C3F84C21704714370020A974002019
:1047B000044B054A1B6801215960D3F8403513604A
:1047C000704700BF1437002020370020034B1A68C1
:1047D000D2F840351844C2F840057047143700201D
:1047E000024B1B6801221A60704700BF143700207B
:1047F000034B1B68D3F84C01003818BF01207047E9
:1048000014370020014B1860704700BF1837002094
:10481000044B054A1B681268C3EB0010C2F84C0534
:10482000704700BF1837002014370020094B1A7852
:1048300072B910B40849094A09681468D1F84C25BE
:1048400001202244C1F84C2518705DF8044B7047D4
:10485000704700BFA97400201437002018370020CB
:1048600010B5084C236802E0D3F84C211AB9D3F8EC
:104870004021002AF8D0FFF765FE23680022C3F824
:10488000402110BD14370020044B05491B6800224D
:10489000D3F848050860C3F848257047143700204E
:1048A0001C370020064B186848B1064B1B68D3F82C
:1048B00048251AB1D3F84835181A70471046704782
:1048C0001C37002014370020054B1B680022C3F85A
:1048D0004421D3F840251044C3F84405704700BF75
:1048E0001437002070B404284E4C0546A8BF042598
:1048F0002570B0B14C480E784C780670012D44708C
:104900000FD08E78CC788670022DC47009D00E79C5
:104910004C790671042D447103D18C79C979847165
:10492000C1714249102A1646A8BF10260E70BAB3AC
:104930005A0737D1721E092A34D9D3E90001D3E9C5
:1049400002453B4AC2E90001D3E90401C2E902453C
:10495000D3E90645C2E90401D3E90801C2E90645E5
:104960007408052CC2E9080111D0D3E90A01062C0C
:10497000C2E90A010BD0D3E90C01082CC2E90C01F1
:1049800005D1D3E90E01C2E90E0170BC704736F0C3
:10499000FE0006F0FE0103D053F8213042F821302A
:1049A00070BC7047224A19681160012EF8D059680E
:1049B0005160022EF4D099689160032EF0D0D9682E
:1049C000D160042EECD019691161052EE8D0596927
:1049D0005161062EE4D099699161072EE0D0D96922
:1049E000D161082EDCD0196A1162092ED8D0596A1B
:1049F00051620A2ED4D0996A91620B2ED0D0D96A16
:104A0000D1620C2ECCD0196B11630D2EC8D0596B0E
:104A100051630E2EC4D0996B9163102E04BFDB6BD3
:104A2000D363BDE7AC74002024370020AB740020B2
:104A3000200E0020214B187800283ED0F0B4204BE7
:104A4000204A1978204C01F5E0774FF0A045012667
:104A500045F827605F7807F5A27742EA0121B04266
:104A600044F8271027D9997801F5E077022845F80E
:104A70002760DF7807F5A27742EA012144F8271082
:104A800019D0197901F5E077032845F827605F7997
:104A900007F5A27742EA012144F827100BD0997953
:104AA00001F5E07042EA012245F82060DB7903F568
:104AB000A27344F82320F0BC70477047AC74002008
:104AC0002437002003001300006000402DE9F04768
:104AD000274F284B3A781C78274B551CB5FBF4FC24
:104AE00004FB1C5C53F822E053F82C203EEA02033E
:104AF0005FFA8CFC39D00026DFF88080DFF88090E8
:104B00003546F4B213F0010F08EB440406F1010638
:104B100008D0647805F1010A09EB840441F82540C6
:104B20005FFA8AF55B08ECD12B4632EA0E0217D009
:104B3000124EDFF850800024E3B212F0010F06EBB2
:104B4000430304F1010408D05B7805F1010E08EB82
:104B5000830341F825305FFA8EF55208ECD12B46DD
:104B6000036087F800C0BDE8F0871D46DDE700BFA1
:104B7000AA740020AB740020200E002024370020EF
:104B80006060004030600040204B21491A78214B82
:104B900000201B680870002A36D030B41E491F4C14
:104BA0004878DD0754BF18300C300125012A44F83D
:104BB00020504FEA530025D910F0010FC878174C48
:104BC0000CBF18300C300125022A44F820504FEA5F
:104BD000930017D010F0010F4879104C0CBF18301B
:104BE0000C300125032A44F820504FEAD30309D0A2
:104BF00013F0010FCB79094A14BF0C33183301218C
:104C000042F8231030BC7047704700BFAC740020DE
:104C1000AA740020200E00202437002000600040ED
:104C200010B586B0012402A901A80194FFF74EFF38
:104C3000019B83B1029B1C60019BA3420BD9039B88
:104C40001C60019B022B06D9049B1C60019B032B5B
:104C500084BF059B1C6006B010BD00BF07280DD89F
:104C6000DFE800F00A080604080604040420704780
:104C700003207047022070470120704700207047D2
:104C800010B400F10C02034607CA054C203384E837
:104C900007000FCB0C3484E80F005DF8044B70471D
:104CA0002C37002000487047BCEC030008B5FEF725
:104CB00031FE034B41F21841002258541A7008BDCE
:104CC0000C580020FEF72CBE70B504460FCC90B0F7
:104CD00001AD0FC594E80700124E0D96124C41F23B
:104CE000044685E807009DF80510A15541F21E42D3
:104CF00002210023A15401A8002207210B4D099392
:104D00000A930B930C938DF820208DF83E20ADF87C
:104D10003C100E95FFF7B4FF01A8FEF723FE10B07C
:104D200070BD00BF32000A000C5800203C00280073
:104D30000048704710580020F0B5164C257887B011
:104D4000ADB1154941F219420B46A25C13F8340B80
:104D5000009300240192A1F5A05301F11C02CDE9BA
:104D6000034404310294FBF7CBF907B0F0BD41F2E4
:104D7000044641F24C4229462046A75D39F028FA04
:104D800041F21E432046E554A755FEF7B7FA01232A
:104D90002370D6E70C580020106C002081F00041F1
:104DA00002E000BF83F0004330B54FEA41044FEA10
:104DB000430594EA050F08BF90EA020F1FBF54EAAB
:104DC000000C55EA020C7FEA645C7FEA655C00F047
:104DD000E2804FEA5454D4EB5555B8BF6D420CDD18
:104DE0002C4480EA020281EA030382EA000083EA9B
:104DF000010180EA020281EA0303362D88BF30BD3B
:104E000011F0004F4FEA01314FF4801C4CEA113190
:104E100002D0404261EB410113F0004F4FEA0333EF
:104E20004CEA133302D0524263EB430394EA050F7A
:104E300000F0A780A4F10104D5F1200E0DDB02FAE9
:104E40000EFC22FA05F2801841F1000103FA0EF27D
:104E5000801843FA05F359410EE0A5F120050EF143
:104E6000200E012A03FA0EFC28BF4CF0020C43FA74
:104E700005F3C01851EBE37101F0004507D54FF081
:104E8000000EDCF1000C7EEB00006EEB0101B1F5D1
:104E9000801F1BD3B1F5001F0CD349085FEA300017
:104EA0004FEA3C0C04F101044FEA445212F5800F22
:104EB00080F09A80BCF1004F08BF5FEA500C50F1BF
:104EC000000041EB045141EA050130BD5FEA4C0CA2
:104ED000404141EB0101013C28BFB1F5801FE9D2FF
:104EE00091F0000F04BF01460020B1FA81F308BF22
:104EF0002033A3F10B03B3F120020CDA0C3208DDEE
:104F000002F1140CC2F10C0201FA0CF021FA02F1C8
:104F10000CE002F11402D8BFC2F1200C01FA02F138
:104F200020FA0CFCDCBF41EA0C019040E41AA2BF5D
:104F300001EB0451294330BD6FEA04041F3C1CDA25
:104F40000C340EDC04F11404C4F1200220FA04F045
:104F500001FA02F340EA030021FA04F345EA0301EF
:104F600030BDC4F10C04C4F1200220FA02F001FAB1
:104F700004F340EA0300294630BD21FA04F0294633
:104F800030BD94F0000F83F4801306BF81F48011CC
:104F90000134013D4EE77FEA645C18BF7FEA655C3F
:104FA00029D094EA050F08BF90EA020F05D054EA11
:104FB000000C04BF1946104630BD91EA030F1EBF16
:104FC0000021002030BD5FEA545C05D1400049411A
:104FD00028BF41F0004130BD14F580043CBF01F50D
:104FE000801130BD01F0004545F0FE4141F47001F3
:104FF0004FF0000030BD7FEA645C1ABF19461046CE
:105000007FEA655C1CBF0B46024650EA013406BFCE
:1050100052EA033591EA030F41F4002130BD00BF8D
:1050200090F0000F04BF0021704730B54FF480644A
:1050300004F132044FF000054FF0000150E700BFCB
:1050400090F0000F04BF0021704730B54FF480642A
:1050500004F1320410F0004548BF40424FF0000117
:105060003EE700BF42004FEAE2014FEA31014FEA5A
:1050700002701FBF12F07F4393F07F4F81F06051A9
:10508000704732F07F4208BF704793F07F4F04BFF4
:1050900041F40021704730B54FF4607401F00045D1
:1050A00021F000411CE700BF50EA010208BF704731
:1050B00030B54FF000050AE050EA010208BF704722
:1050C00030B511F0004502D5404261EB41014FF48B
:1050D000806404F132045FEA915C3FF4D8AE4FF093
:1050E00003025FEADC0C18BF03325FEADC0C18BF76
:1050F000033202EBDC02C2F1200300FA03FC20FAC7
:1051000002F001FA03FE40EA0E0021FA02F1144413
:10511000BDE600BF70B54FF0FF0C4CF4E06C1CEA2C
:1051200011541DBF1CEA135594EA0C0F95EA0C0F9D
:1051300000F0DEF82C4481EA030621EA4C5123EA10
:105140004C5350EA013518BF52EA033541F480113F
:1051500043F4801338D0A0FB02CE4FF00005E1FBF2
:1051600002E506F00042E0FB03E54FF00006E1FB3C
:1051700003569CF0000F18BF4EF0010EA4F1FF047F
:10518000B6F5007F64F5407404D25FEA4E0E6D41BF
:1051900046EB060642EAC62141EA55514FEAC520D0
:1051A00040EA5E504FEACE2EB4F1FD0C88BFBCF54C
:1051B000E06F1ED8BEF1004F08BF5FEA500E50F1FD
:1051C000000041EB045170BD06F0004646EA0101C3
:1051D00040EA020081EA0301B4EB5C04C2BFD4EBF5
:1051E0000C0541EA045170BD41F480114FF0000EEE
:1051F000013C00F3AB8014F1360FDEBF002001F05C
:10520000004170BDC4F10004203C35DA0C341BDCD5
:1052100004F11404C4F1200500FA05F320FA04F0A7
:1052200001FA05F240EA020001F0004221F00041DB
:1052300010EBD37021FA04F642EB06015EEA430E4E
:1052400008BF20EAD37070BDC4F10C04C4F120057E
:1052500000FA04F320FA05F001FA04F240EA020031
:1052600001F0004110EBD37041F100015EEA430E02
:1052700008BF20EAD37070BDC4F1200500FA05F222
:105280004EEA020E20FA04F301FA05F243EA0203A1
:1052900021FA04F001F0004121FA04F220EA0200B0
:1052A00000EBD3705EEA430E08BF20EAD37070BDF6
:1052B00094F0000F0FD101F00046400041EB0101D6
:1052C00011F4801F08BF013CF7D041EA060195F0B8
:1052D000000F18BF704703F00046520043EB030372
:1052E00013F4801F08BF013DF7D043EA060370475F
:1052F00094EA0C0F0CEA135518BF95EA0C0F0CD06A
:1053000050EA410618BF52EA4306D1D181EA0301AF
:1053100001F000414FF0000070BD50EA410606BFA9
:105320001046194652EA430619D094EA0C0F02D1EE
:1053300050EA013613D195EA0C0F05D152EA033633
:105340001CBF104619460AD181EA030101F0004151
:1053500041F0FE4141F470014FF0000070BD41F09A
:10536000FE4141F4780170BD70B54FF0FF0C4CF474
:10537000E06C1CEA11541DBF1CEA135594EA0C0F93
:1053800095EA0C0F00F0A7F8A4EB050481EA030EE0
:1053900052EA03354FEA013100F088804FEA0333C7
:1053A0004FF0805545EA131343EA12634FEA022295
:1053B00045EA111545EA10654FEA00260EF0004156
:1053C0009D4208BF964244F1FD0404F5407402D2A8
:1053D0005B084FEA3202B61A65EB03055B084FEA39
:1053E00032024FF480104FF4002CB6EB020E75EB36
:1053F000030E22BFB61A754640EA0C005B084FEA5E
:105400003202B6EB020E75EB030E22BFB61A7546DA
:1054100040EA5C005B084FEA3202B6EB020E75EB25
:10542000030E22BFB61A754640EA9C005B084FEA9D
:105430003202B6EB020E75EB030E22BFB61A7546AA
:1054400040EADC0055EA060E18D04FEA051545EA99
:1054500016754FEA06164FEAC30343EA52734FEA42
:10546000C2025FEA1C1CC0D111F4801F0BD141EABB
:1054700000014FF000004FF0004CB6E711F4801F20
:1054800004BF01430020B4F1FD0C88BFBCF5E06F00
:105490003FF6AFAEB5EB030C04BFB6EB020C5FEA10
:1054A000500C50F1000041EB045170BD0EF0004E65
:1054B0004EEA113114EB5C04C2BFD4EB0C0541EA97
:1054C000045170BD41F480114FF0000E013C90E694
:1054D00045EA060E8DE60CEA135594EA0C0F08BF58
:1054E00095EA0C0F3FF43BAF94EA0C0F0AD150EA57
:1054F00001347FF434AF95EA0C0F7FF425AF1046EA
:1055000019462CE795EA0C0F06D152EA03353FF411
:10551000FDAE1046194622E750EA410618BF52EA8E
:1055200043067FF4C5AE50EA41047FF40DAF52EA62
:1055300043057FF4EBAE12E74FF0FF3C06E000BFFF
:105540004FF0010C02E000BF4FF0010C4DF804CD0C
:105550004FEA410C7FEA6C5C4FEA430C18BF7FEACC
:105560006C5C1BD001B050EA410C0CBF52EA430CFA
:1055700091EA030F02BF90EA020F0020704710F17A
:10558000000F91EA030F58BF994208BF90422CBF09
:10559000D8176FEAE37040F0010070474FEA410C02
:1055A0007FEA6C5C02D150EA013C07D14FEA430C20
:1055B0007FEA6C5CD6D152EA033CD3D05DF8040B91
:1055C000704700BF8446104662468C4619466346C3
:1055D00000E000BF01B5FFF7B7FF002848BF10F19A
:1055E000000F01BD4DF808EDFFF7F4FF0CBF0120DF
:1055F00000205DF808FB00BF4DF808EDFFF7EAFF5B
:1056000034BF012000205DF808FB00BF4DF808ED15
:10561000FFF7E0FF94BF012000205DF808FB00BF0A
:105620004DF808EDFFF7CEFF94BF012000205DF894
:1056300008FB00BF4DF808EDFFF7C4FF34BF0120A1
:1056400000205DF808FB00BF4FEA4102B2F1E043E1
:1056500024BFB3F5001CDCF1FE5C0DD901F0004C59
:105660004FEAC0024CEA5070B2F1004F40EB8300A9
:1056700008BF20F00100704711F0804F21D113F1D5
:105680003872BCBF01F00040704741F480114FEA0E
:105690005252C2F11802C2F1200C10FA0CF320FA97
:1056A00002F018BF40F001004FEAC1234FEAD323B4
:1056B00003FA0CFC40EA0C0023FA02F34FEA43031E
:1056C000CCE77FEA625307D150EA01331EBF4FF0A7
:1056D000FE4040F44000704701F0004040F0FE40C2
:1056E00040F40000704700BF53B94AB9002908BF11
:1056F00000281CBF4FF0FF314FF0FF3000F06EB9B3
:10570000ADF1080C6DE904CE00F006F8DDF804E018
:10571000DDE9022304B070472DE9F047089D0446F7
:105720008C46002B40F083808A42174647D9B2FA54
:1057300082F242B1C2F1200024FA00F09140974079
:1057400040EA010C94404FEA1748230CBCFBF8F6E2
:105750001FFA87FE08FB16C143EA014306FB0EF160
:10576000994209D9FB1806F1FF3080F0198199425E
:1057700040F21681023E3B445B1AA4B2B3FBF8F040
:1057800008FB103344EA034400FB0EFEA64509D98A
:105790003C1900F1FF3380F00581A64540F20281FB
:1057A00002383C4440EA0640A4EB0E0400261DB13A
:1057B000D4400023C5E900433146BDE8F08702B973
:1057C000FFDEB2FA82F2002A50D1CB1B4FEA174E0D
:1057D0001FFA87F80126B3FBFEFC210C0EFB1C33DD
:1057E00041EA034108FB0CF38B4207D979180CF10D
:1057F000FF3002D28B4200F2E9808446C91AA3B27C
:10580000B1FBFEF00EFB101143EA014408FB00F867
:10581000A04507D93C1900F1FF3302D2A04500F2A0
:10582000D9801846A4EB080440EA0C40BFE78B423D
:1058300009D9002D00F0B1800026C5E900013046ED
:105840003146BDE8F087B3FA83F6002E4AD18B4289
:1058500002D3824200F2B880841A61EB0301012076
:105860008C46002DA8D0C5E9004CA5E7C2F1200365
:1058700020FA03F6974001FA02F04FEA174ED9409A
:105880003043030CB1FBFEF61FFA87F80EFB16112E
:1058900043EA014306FB08F1994204FA02F409D9EC
:1058A000FB1806F1FF3C80F08D80994240F28A801F
:1058B000023E3B445B1A81B2B3FBFEF00EFB103399
:1058C00041EA034100FB08F38B4207D9791800F144
:1058D000FF3C73D28B4271D902383944CB1A40EA6B
:1058E000064678E7C6F1200C03FA06F422FA0CF318
:1058F0001C4320FA0CF701FA06F34FEA144E21FA82
:105900000CF11F433B0CB1FBFEF91FFA84F80EFBB0
:10591000191143EA014109FB08FA8A4502FA06F225
:1059200000FA06F308D9611809F1FF3048D28A4518
:1059300046D9A9F102092144A1EB0A01BFB2B1FB8A
:10594000FEF00EFB101147EA014700FB08F8B845CE
:1059500007D9E71900F1FF312ED2B8452CD902380A
:10596000274440EA0940A7EB0807A0FB02894F45FE
:10597000C64649461AD317D05DB1B3EB0E0267EBAA
:10598000010707FA0CFCF2404CEA0202F740C5E9B5
:10599000002700263146BDE8F0872E4628460BE753
:1059A0000646E9E61846FDE64345E5D2B8EB020EA9
:1059B00069EB04010138DFE70846D2E760468DE76E
:1059C0008146B9E7664675E730464AE7ACF1020C16
:1059D000394413E702383C4424E700BF704700BF56
:1059E000F8B515460A4A1C4656682EB101B02A463B
:1059F000B446BDE8F040604700208DF800006846DE
:105A000017F0D6FD9DF80000281A20700020F8BD80
:105A10000000002030B4054C246814B1A44630BC0A
:105A200060471A7030BC0020704700000000002062
:105A3000002819D003781349134A13B1012B0ED053
:105A400011E00379012B00D06BB943790BB1012B25
:105A500009D18368643B8B4205D2C0680EE00379AC
:105A6000012B02D00BB10020704743790BB1012B01
:105A7000F9D1C368643B8B42F5D280689042F2D87A
:105A8000012070473D860100FF1FA10710B5054C9E
:105A9000206810B1804700202060BDE8104002F06F
:105AA0001DB80000080000202DE9F0410E46050059
:105AB00004D000F045F8074600240AE06FF0150016
:105AC000BDE8F081204600F041F8807838B1641CD0
:105AD000E4B2BC42F6D300BF6FF00B00F0E72746FC
